:100000000C945D000C940C040C94E5030C94850096
:100010000C9485000C9485000C9485000C9485004C
:100020000C9485000C9485000C9485000C9485003C
:100030000C9485000C9485000C9485000C9485002C
:100040000C949B030C9485000C9469030C9443035B
:100050000C9485000C9485000C9485000C9485000C
:100060000C9485000C94850000000008000201003B
:100070000003040700000000000000000000000072
:10008000250028002B0000000000240027002A0083
:10009000040404040404040402020202020203032E
:1000A0000303030301020408102040800102040836
:1000B0001020010204081020330411241FBECFEFCA
:1000C000D8E0DEBFCDBF21E0A8E2B1E001C01D92C3
:1000D000AD3EB207E1F711E0A0E0B1E0E8ECFBE0F3
:1000E00002C005900D92A832B107D9F710E0CDE516
:1000F000D0E004C02197FE010E94D705CC35D1077E
:10010000C9F70E9484040C94E2050C94000090E06E
:10011000FC01EC55FF4F2491FC01E057FF4F849107
:10012000882399F090E0880F991FFC01EA57FF4F50
:10013000A591B491FC01E458FF4F859194918FB73C
:10014000F894EC91E22BEC938FBF0895FC01538D52
:10015000448D252F30E0842F90E0821B930B5417A1
:1001600010F0CF96089501970895FC01918D828D2E
:10017000981761F0828DDF01A80FB11D5D968C91FB
:10018000928D9F5F9F73928F90E008958FEF9FEF06
:100190000895FC01918D828D981731F0828DE80FC2
:1001A000F11D858D90E008958FEF9FEF0895FC017C
:1001B000918D228D892F90E0805C9F4F821B910949
:1001C0008F7399270895FC01848DDF01A80FB11D5D
:1001D000A35ABF4F2C91848D90E001968F7399277D
:1001E000848FA689B7892C93A089B1898C9180646A
:1001F0008C93938D848D981306C00288F389E02D2B
:1002000080818F7D80830895EF92FF920F931F93DB
:10021000CF93DF93EC0181E0888F9B8D8C8D9813B9
:1002200005C0E889F989808185FD24C0F62E0B8DF3
:1002300010E00F5F1F4F0F731127E02E8C8DE81217
:100240000CC00FB607FCFACFE889F989808185FFD9
:10025000F5CFCE010E94E300F1CF8B8DFE01E80FB8
:10026000F11DE35AFF4FF0820B8FEA89FB898081F1
:10027000806207C0EE89FF896083E889F9898081FF
:100280008064808381E090E0DF91CF911F910F9196
:10029000FF90EF900895CF93DF93EC01888D882332
:1002A000C9F0EA89FB89808185FD05C0A889B989E3
:1002B0008C9186FD0FC00FB607FCF5CF808185FFBE
:1002C000F2CFA889B9898C9185FFEDCFCE010E942C
:1002D000E300E7CFDF91CF91089584E391E00E949E
:1002E000D70021E0892B09F420E0822F089580E0D7
:1002F00090E0892B29F00E946D0181110C9400007F
:100300000895CF92DF92EF92FF920F931F93CF93B6
:10031000DF936C017A018B01C0E0D0E0CE15DF05E0
:1003200089F0D8016D918D01D601ED91FC9101907C
:10033000F081E02DC6010995892B11F47E0102C0E0
:100340002196ECCFC701DF91CF911F910F91FF90C4
:10035000EF90DF90CF90089590E0FC01E859FF4FB7
:100360003491FC01EC55FF4F2491FC01E057FF4F05
:10037000E491EE2309F43BC0332339F1333091F09B
:1003800038F43130A9F0323001F584B58F7D12C0D8
:10039000373091F03830A1F03430B9F480918000DA
:1003A0008F7D03C0809180008F77809380000DC087
:1003B00084B58F7784BD09C08091B0008F7703C06A
:1003C0008091B0008F7D8093B000F0E0EE0FFF1FB2
:1003D000E458FF4FA591B4918FB7F894EC91611157
:1003E00003C020952E2301C02E2B2C938FBF089580
:1003F0003FB7F89480912D0190912E01A0912F018B
:10040000B091300126B5A89B05C02F3F19F0019689
:10041000A11DB11D3FBFBA2FA92F982F8827820F8A
:10042000911DA11DB11DBC01CD0142E0660F771FDA
:10043000881F991F4A95D1F708958F929F92AF9286
:10044000BF92CF92DF92EF92FF926B017C010E94EC
:10045000F8014B015C01C114D104E104F104F1F095
:100460000E94F801DC01CB0188199909AA09BB098E
:10047000883E9340A105B10570F321E0C21AD1086E
:10048000E108F10888EE880E83E0981EA11CB11CDB
:10049000C114D104E104F10419F7DDCFFF90EF900E
:1004A000DF90CF90BF90AF909F908F900895089568
:1004B000EF92FF921F93CF93DF931F92CDB7DEB7DA
:1004C0007C01162F60E0FC01868549830E94AC0107
:1004D000F701948585859CBD8DBD1EBD00004981B9
:1004E0000DB407FEFDCF8EB54EBD00000DB407FE66
:1004F000FDCF1EB561E0F70186850E94AC01812F1A
:100500000F90DF91CF911F91FF90EF900895089584
:100510000F931F93CF93DF93EC01E881F98100845F
:10052000F185E02D0995892BA1F040E06DE0CE0129
:100530000E945802082F40E060E0CE010E9458025D
:10054000182F402F6DE8CE010E945802812F90E0B5
:1005500002C08FEF9FEFDF91CF911F910F91089510
:10056000CF93DF93EC01E881F9810084F185E02DE0
:100570000995892B61F08E899F8901969F8B8E8BBF
:1005800040E060E0CE010E94580290E002C08FEF90
:100590009FEFDF91CF910895CF93DF93EC0140E07F
:1005A00063E10E945802282F30E08E899F89A901BB
:1005B000481B590BCA01DF91CF9108958F929F92EA
:1005C000AF92BF92CF92DF92FF920F931F93CF9380
:1005D000DF931F92CDB7DEB76C01B62E4A0140E023
:1005E00062E279830E945802F82E90E09C01280D67
:1005F000391D79812F3F310531F028F02FEF30E0A0
:100600004901881A990A0B2D172F5801A80CB91CFB
:100610000A151B0541F0F80141918F0160E8C60100
:100620000E945802F5CF482D4F0D62EAC6010E9484
:100630005802C4010F90DF91CF911F910F91FF904D
:10064000DF90CF90BF90AF909F908F900895CF9301
:10065000DF931F92CDB7DEB76983DC01ED91FC918A
:100660000280F381E02D41E050E0BE016F5F7F4FDB
:1006700009950F90DF91CF910895089580E090E063
:1006800008950E94DD051F920F920FB60F9211245C
:100690002F933F934F935F936F937F938F939F938A
:1006A000AF93BF93EF93FF9384E391E00E94E30045
:1006B000FF91EF91BF91AF919F918F917F916F913A
:1006C0005F914F913F912F910F900FBE0F901F9010
:1006D00018951F920F920FB60F9211242F938F939C
:1006E0009F93EF93FF93E0914401F0914501808146
:1006F000E0914A01F0914B0182FD12C090818091FE
:100700004D018F5F8F7320914E01821751F0E09160
:100710004D01F0E0EC5CFE4F958F80934D0101C0E0
:100720008081FF91EF919F918F912F910F900FBE3C
:100730000F901F9018951F920F920FB60F921124D1
:100740002F933F938F939F93AF93BF9380912901F2
:1007500090912A01A0912B01B0912C013091280198
:1007600023E0230F2D3720F40196A11DB11D05C0F4
:1007700026E8230F0296A11DB11D20932801809326
:10078000290190932A01A0932B01B0932C01809111
:100790002D0190912E01A0912F01B0913001019671
:1007A000A11DB11D80932D0190932E01A0932F01C7
:1007B000B0933001BF91AF919F918F913F912F9155
:1007C0000F900FBE0F901F9018951F920F920FB6AB
:1007D0000F9211242F933F934F935F936F937F93C7
:1007E0008F939F93AF93BF93EF93FF93E091020199
:1007F000F09103010995FF91EF91BF91AF919F9106
:100800008F917F916F915F914F913F912F910F90B9
:100810000FBE0F901F9018951F920F920FB60F9258
:1008200011242F933F934F935F936F937F938F93F5
:100830009F93AF93BF93EF93FF93E0910001F091EB
:1008400001010995FF91EF91BF91AF919F918F9118
:100850007F916F915F914F913F912F910F900FBEBC
:100860000F901F901895E4E3F1E01382128288EE56
:1008700093E0A0E0B0E084839583A683B78388E00B
:1008800091E09183808385EC90E09587848784EC68
:1008900090E09787868780EC90E0918B808B81EC4D
:1008A00090E0938B828B82EC90E0958B848B86EC2E
:1008B00090E0978B868B118E128E138E148EE1ED45
:1008C000F1E0138212828AE191E09183808380E5D6
:1008D000848781E085878AE090E09787868789E032
:1008E00090E0918B808B82E090E0938B828B158AD5
:1008F000148A178A168A118E108E138E128E148205
:100900001582168217820895789484B5826084BD1A
:1009100084B5816084BD85B5826085BD85B5816003
:1009200085BD80916E00816080936E001092810081
:10093000809181008260809381008091810081603C
:1009400080938100809180008160809380008091FD
:10095000B10084608093B1008091B0008160809389
:10096000B00080917A00846080937A0080917A0050
:10097000826080937A0080917A00816080937A000F
:1009800080917A00806880937A001092C1008DE097
:100990000E94870060E08DE00E94AC018091DF0141
:1009A0000E9487008091E1010E94870060E08091B1
:1009B000E1010E94AC016AE070E080E090E00E94FA
:1009C0001D0261E08091E1010E94AC016AE070E0EB
:1009D00080E090E00E941D0261E08091DF010E94B2
:1009E000AC01CFB7F89480913101811124C0EAE9BC
:1009F000F0E08491EEEAF0E09491E82FF0E0EE0F61
:100A0000FF1FEA57FF4FA591B491EC91E92321F420
:100A100061E08AE00E94AC018AE00E9487008CB508
:100A200080618CBD8CB580648CBD8DE00E94870098
:100A30008BE00E948700809131018F5F80933101AC
:100A4000CFBF40E062E481ED91E00E945802823124
:100A500009F0A8C040E861E881ED91E00E945802E9
:100A600080EC9AEC9093E6018093E50144EE66E811
:100A700081ED91E00E94580240EC67E881ED91E041
:100A80000E94580240E068E881ED91E00E9458021F
:100A900040E06EE881ED91E00E94580240E06FE88E
:100AA00081ED91E00E94580240E06CE081ED91E020
:100AB0000E945802482F43606CE881ED91E00E944B
:100AC000580244E066EA81ED91E00E9458024FE846
:100AD00069E881ED91E00E94580241E861E881ED0A
:100AE00091E00E94580241E861E881ED91E00E94A6
:100AF00058021092EA011092E90140E06DE181EDA7
:100B000091E00E945802482F4E7F6DE981ED91E0FF
:100B10000E94580240E06DE881ED91E00E94580289
:100B200040E062EA81ED91E00E945802C0E0D0E02E
:100B30006C2FD0933301C0933201E091D101F09139
:100B4000D2010190F081E02D81ED91E00995E091D5
:100B5000D101F091D2010190F081E02D609133013B
:100B600081ED91E009952196C430D10509F743E85C
:100B700061E881ED91E00E94580240E062E181ED80
:100B800091E00E94580283FFF8CF48E062E981EDCE
:100B900091E00E94580260ED77E080E090E00E94D2
:100BA0001D02A1CF61E08DE00E94AC01FFCFEE0FEE
:100BB000FF1F0590F491E02D099481E090E0F894F6
:080BC0000C94E205F894FFCF4C
:100BC800570257020000000004018101A6004B01F2
:100BD800D700B500C900000000002703DE023E036D
:080BE8008702CC02B002880272
:107E000085E08093810082E08093C00088E18093C8
:107E1000C10086E08093C20080E18093C40084B7F3
:107E200014BE81FFD0D089E2C8D0259A86E020E335
:107E30003CEF91E0309385002093840096BBB09B8B
:107E4000FECF1D9AA8958150A9F7DD24D394A5E013
:107E5000EA2EF1E1FF2EA4D0813421F481E0BED0DE
:107E600083E024C0823411F484E103C0853419F422
:107E700085E0B4D08AC08535A1F492D0082F10E0F7
:107E800010930102009300028BD090E0982F882776
:107E9000802B912B880F991F9093010280930002F1
:107EA00073C0863529F484E099D080E071D06DC02C
:107EB000843609F043C07CD0E0910002F0910102C9
:107EC00083E080935700E895C0E0D1E069D08993C2
:107ED000809102028150809302028823B9F778D002
:107EE00007B600FCFDCF4091000250910102A0E0D6
:107EF000B1E02C9130E011968C91119790E0982F81
:107F00008827822B932B1296FA010C01D0925700EE
:107F1000E89511244E5F5F4FF1E0A038BF0749F7A5
:107F2000E0910002F0910102E0925700E89507B657
:107F300000FCFDCFF0925700E89527C08437B9F4D4
:107F400037D046D0E0910002F09101023196F093D3
:107F50000102E09300023197E4918E2F19D08091B5
:107F60000202815080930202882361F70EC0853798
:107F700039F42ED08EE10CD085E90AD08FE096CF6F
:107F8000813511F488E019D023D080E101D063CF8E
:107F9000982F8091C00085FFFCCF9093C600089574
:107FA000A8958091C00087FFFCCF8091C6000895FE
:107FB000F7DFF6DF80930202F3CFE0E6F0E098E12E
:107FC00090838083089580E0F8DFEE27FF270994EF
:107FD000E7DF803209F0F7DF84E1DACF1F93182F53
:0C7FE000DFDF1150E9F7F4DF1F91089576
:0400000300007E007B
:00000001FF
