:100000000C9434000C9402010C9451000C94510097
:100010000C9451000C9451000C9451000C9451001C
:100020000C9451000C9451000C9451000C94280134
:100030000C944E010C9451000C9451000C945100FE
:100040000C9451000C9451000C9451000C945100EC
:100050000C9451000C94DA000C9451000C94510053
:100060000C9451000C94510011241FBECFEFD8E026
:10007000DEBFCDBF11E0A0E0B1E0EAE0F3E002C0F6
:1000800005900D92A230B107D9F721E0A2E0B1E0CE
:1000900001C01D92AA34B207E1F70E9458010C94E6
:1000A00083010C94000083B7817F83BF83B7816095
:1000B00083BF889583B78E7F83BF0895E0E8F0E023
:1000C00080818C75806A8083E1E8F0E08081807EA9
:1000D0008960808385B3866085BB80E49CE99093CA
:1000E00089008093880080EE9EE290938B0080933D
:1000F0008A001092850010928400089588E284B9E5
:1001000081E58CBDE89A78940895809104018F5F11
:1001100019F080930401089588E38093040180918D
:1001200002019091030101969093030180930201D3
:1001300008958EBD0DB407FEFDCF8EB50895CF9303
:10014000DF9380E00E949900D82F81E090914901CF
:10015000911180E080934901DD2339F0C0E080E017
:100160000E949900CF5FDC13FACFDF91CF91089501
:10017000E0910001EF5FEF70E0930001F0E0EE0F1F
:10018000FF1FEF5DFE4F918380830895E1E2F1E070
:1001900021E431E083E590E081939193E217F30746
:1001A000D9F78EE790E00E94B8008EE590E00E94BB
:1001B000B80008951F920F920FB60F9211242F933B
:1001C0003F934F935F936F937F938F939F93AF93DF
:1001D000BF93EF93FF9380910601909107010E94D6
:1001E000B800FF91EF91BF91AF919F918F917F9157
:1001F0006F915F914F913F912F910F900FBE0F9094
:100200001F9018951F920F920FB60F9211242F93E3
:100210003F934F935F936F937F938F939F93AF938E
:10022000BF93EF93FF938FE990E00E94B800FF9196
:10023000EF91BF91AF919F918F917F916F915F915E
:100240004F913F912F910F900FBE0F901F901895D7
:100250001F920F920FB60F9211242F933F934F933B
:100260005F936F937F938F939F93AF93BF93EF931E
:10027000FF9385E890E00E94B800FF91EF91BF9155
:10028000AF919F918F917F916F915F914F913F912E
:100290002F910F900FBE0F901F9018951F920F92E5
:1002A0000FB60F9211240F900FBE0F901F9018954C
:1002B00086EC90E00E94B800C3E5D0E0E091050133
:1002C000F0E0EE0FFF1FEF5DFE4F0190F081E02D9B
:1002D000099580910501E82FF0E0EE0FFF1FEF5D1B
:1002E000FE4FD183C08390910001891307C08F5FB7
:1002F0008F708093000180930501E0CF8F5F8F7036
:0A03000080930501DBCFF894FFCFD6
:02030A000F00E2
:00000001FF
