:100000000C9434000C94EC000C9451000C945100AE
:100010000C9451000C9451000C9451000C9451001C
:100020000C9451000C9451000C9451000C94330129
:100030000C9473010C9451000C9451000C945100D9
:100040000C9451000C9412010C9451000C9451002A
:100050000C9451000C94C4000C9451000C94510069
:100060000C9451000C94510011241FBECFEFD8E026
:10007000DEBFCDBF11E0A0E0B1E0EEE5F3E002C0ED
:1000800005900D92A230B107D9F721E0A2E0B1E0CE
:1000900001C01D92AA36B207E1F70E9482010C94BA
:1000A000AD010C94000083B7817F83BF83B781606B
:1000B00083BF889583B78E7F83BF0895E0E8F0E023
:1000C00080818C75806A8083E1E8F0E08081807EA9
:1000D0008960808385B3866085BB8FE087B980E4C3
:1000E0009CE99093890080938800E0910501F0E0FD
:1000F000EE0FFF1FE05FFF4F8081918190938B0097
:1001000080938A001092850010928400089588E2FE
:1001100084B981E58CBDE89A7894089580910401B2
:100120008F5F19F080930401089588E380930401A0
:1001300080910201909103010196909303018093B5
:1001400002010895E0910001EF5FEF70E09300017C
:10015000F0E0EE0FFF1FE65DFE4F91838083089570
:10016000EAE2F1E02AE431E083E590E081939193C3
:10017000E217F307D9F787E890E00E94A2008EE526
:1001800090E00E94A20008951F920F920FB60F9266
:1001900011242F933F934F935F936F937F938F938C
:1001A0009F93AF93BF93EF93FF9380911001909132
:1001B00011010E94A200FF91EF91BF91AF919F9119
:1001C0008F917F916F915F914F913F912F910F9000
:1001D0000FBE0F901F9018951F920F920FB60F929F
:1001E00011242F933F934F935F936F937F938F933C
:1001F0009F93AF93BF93EF93FF9383E590E00E94AB
:10020000A200FF91EF91BF91AF919F918F917F914C
:100210006F915F914F913F912F910F900FBE0F9073
:100220001F9018951F920F920FB60F9211248F9363
:10023000EF93FF93E0910601EF5FE0930601F0E09A
:10024000E65BFE4F80818EBD8EB5E0910601F0E049
:10025000E65BFE4F8083FF91EF918F910F900FBE71
:100260000F901F9018951F920F920FB60F921124A6
:100270002F933F934F935F936F937F938F939F93AE
:10028000AF93BF93EF93FF93E091050181E08E0F51
:1002900080930501F0E0EE0FFF1FE85FFE4F8081C5
:1002A000282F318130938B0020938A0098B1892BBD
:1002B00088B9809105018F70809305018EE890E0E8
:1002C0000E94A200FF91EF91BF91AF919F918F91FA
:1002D0007F916F915F914F913F912F910F900FBE42
:1002E0000F901F9018951F920F920FB60F92112426
:1002F0008F9388B1807F88B98F910F900FBE0F9038
:100300001F90189580EB90E00E94A200C3E5D0E01A
:10031000E0910701F0E0EE0FFF1FE65DFE4F019058
:10032000F081E02D099580910701E82FF0E0EE0FB4
:10033000FF1FE65DFE4FD183C083909100018913BA
:1003400007C08F5F8F708093000180930701E0CF1B
:0E0350008F5F8F7080930701DBCFF894FFCF93
:02035E000F008E
:00000001FF
