S00E000052432D4361722E737265633E
S11300000C9434000C946F000C9446000C9446003D
S11300100C9446000C9446000C9446000C94460044
S11300200C9446000C9446000C9446000C94460034
S11300300C9446000C9446000C9446000C94460024
S11300400C9446000C9446000C9446000C94460014
S11300500C9446000C9448000C9446000C94460002
S11300600C9446000C94460011241FBECFEFD8E038
S1130070DEBFCDBF21E0A0E0B1E001C01D92AF34EE
S1130080B207E1F70E9484000C9490000C940000E5
S11300901F920F920FB60F9211242F933F934F93F9
S11300A05F936F937F938F939F93AF93BF93EF93DC
S11300B0FF93E0910001F09101010995FF91EF9107
S11300C0BF91AF919F918F917F916F915F914F916C
S11300D03F912F910F900FBE0F901F9018951F9274
S11300E00F920FB60F9211240F900FBE0F901F9016
S11300F0189588E284B981E58CBD08958EBD0DB450
S113010007FEFDCF8EB508951092640089E284B98C
S113011015B80E947900809102010E947E00FBCFF5
S1070120F894FFCF7D
S9030000FC
