:100000000C9434000C9406010C9451000C94510093
:100010000C9451000C9451000C9451000C9451001C
:100020000C9451000C9451000C9451000C942C0130
:100030000C9452010C9451000C9451000C945100FA
:100040000C9451000C9451000C9451000C945100EC
:100050000C9451000C94DE000C9451000C9451004F
:100060000C9451000C94510011241FBECFEFD8E026
:10007000DEBFCDBF11E0A0E0B1E0E2E1F3E002C0FD
:1000800005900D92A230B107D9F721E0A2E0B1E0CE
:1000900001C01D92A233B207E1F70E945C010C94EB
:1000A00087010C94000083B7817F83BF83B7816091
:1000B00083BF889583B78E7F83BF0895E0E8F0E023
:1000C00080818C75806A8083E1E8F0E08081807EA9
:1000D0008960808385B3866085BB80E29EE49093CF
:1000E0008700809386008CED95E090938900809343
:1000F000880090938B0080938A0010928500109264
:100100008400089588E284B981E58CBDE89A7894EA
:100110000895809104018F5F19F080930401089580
:1001200088E380930401809102019091030101967C
:10013000909303018093020108958EBD0DB407FED4
:10014000FDCF8EB50895CF93DF9380E00E949D0090
:10015000D82F81E090913101911180E0809331019D
:10016000DD2339F0C0E080E00E949D00CF5FDC130A
:10017000FACFDF91CF910895E0910001EF5FEF702A
:10018000E0930001F0E0EE0FFF1FE75FFE4F918369
:1001900080830895E9E0F1E029E231E083E590E031
:1001A00081939193E217F307D9F782E890E00E94D8
:1001B000BC008EE590E00E94BC0008951F920F9253
:1001C0000FB60F9211242F933F934F935F936F932A
:1001D0007F938F939F93AF93BF93EF93FF93809100
:1001E0000601909107010E94BC00FF91EF91BF9121
:1001F000AF919F918F917F916F915F914F913F91BF
:100200002F910F900FBE0F901F9018951F920F9275
:100210000FB60F9211242F933F934F935F936F93D9
:100220007F938F939F93AF93BF93EF93FF9383EA53
:1002300090E00E94BC00FF91EF91BF91AF919F9120
:100240008F917F916F915F914F913F912F910F907F
:100250000FBE0F901F9018951F920F920FB60F921E
:1002600011242F933F934F935F936F937F938F93BB
:100270009F93AF93BF93EF93FF9389E890E00E9421
:10028000BC00FF91EF91BF91AF919F918F917F91B2
:100290006F915F914F913F912F910F900FBE0F90F3
:1002A0001F9018951F920F920FB60F9211240F9066
:1002B0000FBE0F901F9018958AEC90E00E94BC0032
:1002C000C3E5D0E0E0910501F0E0EE0FFF1FE75F2E
:1002D000FE4F0190F081E02D099580910501E82FF6
:1002E000F0E0EE0FFF1FE75FFE4FD183C0839091D8
:1002F0000001891307C08F5F8F7080930001809386
:100300000501E0CF8F5F8F7080930501DBCFF894FC
:02031000FFCF1D
:020312000F00DA
:00000001FF
