S00E000052432D4361722E737265633E
S11300000C9434000C94F9000C9451000C9451009D
S11300100C9451000C9451000C9451000C94510018
S11300200C9451000C9451000C9451000C94510008
S11300300C9451000C9451000C9451000C945100F8
S11300400C9451000C9451000C9451000C945100E8
S11300500C9451000C94D6000C9451000C94510053
S11300600C9451000C94510011241FBECFEFD8E022
S1130070DEBFCDBF11E0A0E0B1E0E8EAF2E002C0EB
S113008005900D92A230B107D9F721E0A2E0B1E0CA
S113009001C01D92AF32B207E1F70E941A010C941D
S11300A052010C94000083B7817F83BF83B78160C2
S11300B083BF889583B78E7F83BF08951EBC0DB41C
S11300C007FEFDCF9EB581E020912E01211180E035
S11300D080932E01992349F080E01EBC0DB407FEE5
S11300E0FDCF2EB58F5F8913F8CF089582EA8093F0
S11300F080008AE18093810080E29EE490938700EF
S1130100809386008CED95E090938900809388001D
S113011090938B0080938A00109285001092840043
S1130120089588E284B981E58CBD0895E6E0F1E0A4
S113013083E590E091838083938382839583848392
S1130140978386839187808793878287958784871F
S113015097878687918B808B938B828B958B848BEF
S1130160978B868B918F808F938F828F958F848FBF
S1130170978F868FE0910001EF5FEF70AE2FB0E0B4
S1130180AA0FBB1FAA5FBE4F81E990E08D939C9399
S1130190EF5FEF70E0930001F0E0EE0FFF1FEA5F06
S11301A0FE4F86E790E09183808308951F920F921B
S11301B00FB60F9211248F939F93EF93FF93809127
S11301C0030190910401E0910001EF5FEF70E0936F
S11301D00001F0E0EE0FFF1FEA5FFE4F9183808382
S11301E0FF91EF919F918F910F900FBE0F901F90F1
S11301F018951F920F920FB60F9211248F939F930D
S1130200EF93FF93E0910001EF5FEF70E093000143
S1130210F0E0EE0FFF1FEA5FFE4F8EE590E0918362
S11302208083FF91EF919F918F910F900FBE0F905C
S11302301F901895E0910001EF5FEF70E0930001CB
S1130240F0E0EE0FFF1FEA5FFE4F86E990E0918336
S11302508083C3E5D0E0E0910201F0E0EE0FFF1FE0
S1130260EA5FFE4F0190F081E02D09958091020133
S1130270E82FF0E0EE0FFF1FEA5FFE4FD183C0834B
S113028090910001891731F08F5F8F708093020184
S1130290E82FE3CF8F5F8F7080930001809302017A
S10B02A0E82FDBCFF894FFCF37
S10502A80F0041
S9030000FC
