:100000000C9436000C944F010C9453000C94530044
:100010000C9453000C9453000C9453000C94530014
:100020000C9453000C9453000C9453000C949101C5
:100030000C94D1010C9453000C9453000C94530075
:100040000C9453000C9470010C9453000C945300C6
:100050000C9453000C942C010C9453000C945300FA
:100060000C9453000C9453000104020811241FBE89
:10007000CFEFD8E0DEBFCDBF11E0A0E0B1E0E4E318
:10008000F4E002C005900D92A230B107D9F721E04B
:10009000A2E0B1E001C01D92AA36B207E1F70E94CA
:1000A000E0010C9418020C94000083B7817F83BF99
:1000B00083B7816083BF889583B78E7F83BF0895A0
:1000C000E0E8F0E080818C75806A8083E1E8F0E010
:1000D0008081807E8960808385B3866085BB8FE068
:1000E00087B980E49CE99093890080938800E0912F
:1000F0000501F0E0EE0FFF1FE05FFF4F808191816F
:1001000090938B0080938A00109285001092840057
:100110007894089588E284B981E58CBDE89A789452
:100120000895EAE2F1E085E590E09183808393838E
:10013000828395838483978386839187808793873F
:1001400082879587848797878687918B808B938B0F
:10015000828B958B848B978B868B918F808F938FDF
:10016000828F958F848F978F868FE0910001EF5F4C
:10017000EF70AE2FB0E0AA0FBB1FA65DBE4F8AE89E
:1001800090E08D939C93EF5FEF70AE2FB0E0AA0FDD
:10019000BB1FA65DBE4F80E690E08D939C93EF5F02
:1001A000EF70E0930001F0E0EE0FFF1FE65DFE4F01
:1001B0008DED90E09183808308958091020190916C
:1001C00003019C0123703327232B11F080FD20C0F5
:1001D00080911A0190911B0190930901809308016D
:1001E00080911C0190911D0190930B0180930A0155
:1001F00080911E0190911F0190930D0180930C013D
:10020000809120019091210190930F0180930E0124
:100210000895809104018F5FE1F488E380930401E5
:1002200080910201909103010196909303018093C4
:100230000201E0910001EF5FEF70E0930001F0E058
:10024000EE0FFF1FE65DFE4F8DED90E09183808302
:1002500008958093040108951F920F920FB60F9294
:1002600011248F939F93EF93FF93809110019091AE
:100270001101E0910001EF5FEF70E0930001F0E009
:10028000EE0FFF1FE65DFE4F91838083FF91EF919C
:100290009F918F910F900FBE0F901F9018951F92F6
:1002A0000F920FB60F9211248F939F93EF93FF93AA
:1002B000E0910001EF5FEF70E0930001F0E0EE0FDE
:1002C000FF1FE65DFE4F85E590E091838083FF91FF
:1002D000EF919F918F910F900FBE0F901F901895E7
:1002E0001F920F920FB60F9211248F93EF93FF93EB
:1002F000E0910601EF5FE0930601F0E0E65BFE4F60
:1003000080818EBD8EB5E0910601F0E0E65BFE4F88
:100310008083FF91EF918F910F900FBE0F901F90F0
:1003200018951F920F920FB60F9211242F933F939F
:100330008F939F93EF93FF9398B1E0910501F0E0C5
:10034000E859FF4F8081892B88B980910501E82FFA
:10035000F0E0EE0FFF1FE85FFE4F20813181309308
:100360008B0020938A008F5F8F7080930501E0914E
:100370000001EF5FEF70E0930001F0E0EE0FFF1F70
:10038000E65DFE4F89E091E091838083FF91EF91DC
:100390009F918F913F912F910F900FBE0F901F90C3
:1003A00018951F920F920FB60F9211248F9388B158
:1003B000807F88B98F910F900FBE0F901F90189576
:1003C000E0910001EF5FEF70E0930001F0E0EE0FCD
:1003D000FF1FE65DFE4F81E990E091838083C5E5D4
:1003E000D0E0E0910701F0E0EE0FFF1FE65DFE4F69
:1003F0000190F081E02D099580910701E82FF0E050
:10040000EE0FFF1FE65DFE4FD183C0839091000188
:10041000891731F08F5F8F7080930701E82FE3CF4A
:100420008F5F8F708093000180930701E82FDBCFEF
:04043000F894FFCF6E
:020434000F00B7
:00000001FF
