:100000000C9434000C9418010C9451000C94510081
:100010000C9451000C9451000C9451000C9451001C
:100020000C9451000C9451000C9451000C94390123
:100030000C945A010C9451000C9451000C945100F2
:100040000C9451000C9451000C9451000C945100EC
:100050000C9451000C94F5000C9451000C94510038
:100060000C9451000C94510011241FBECFEFD8E026
:10007000DEBFCDBF11E0A0E0B1E0ECE3F3E002C0F1
:1000800005900D92A230B107D9F721E0A2E0B1E0CE
:1000900001C01D92A233B207E1F70E9464010C94E3
:1000A0009C010C94000083B7817F83BF83B781607C
:1000B00083BF889583B78E7F83BF08951EBC0DB420
:1000C00007FEFDCF9EB581E020913101211180E036
:1000D00080933101992349F080E01EBC0DB407FEE6
:1000E000FDCF2EB58F5F8913F8CF0895E0E8F0E0DB
:1000F00080818C75806A8083E1E8F0E08081807E79
:100100008960808385B3866085BB80E29EE490939E
:100110008700809386008CED95E090938900809312
:10012000880090938B0080938A0010928500109233
:100130008400089588E284B981E58CBDE89A7894BA
:100140000895E9E0F1E083E590E091838083938373
:10015000828395838483978386839187808793871F
:1001600082879587848797878687918B808B938BEF
:10017000828B958B848B978B868B918F808F938FBF
:10018000828F958F848F978F868FE0910001EF5F2C
:10019000EF70AE2FB0E0AA0FBB1FA75FBE4F8AE97A
:1001A00090E08D939C93EF5FEF70E0930001F0E09F
:1001B000EE0FFF1FE75FFE4F86E790E0918380839D
:1001C0000895809104018F5F69F488E380930401AE
:1001D0008091020190910301019690930301809315
:1001E000020108958093040108951F920F920FB6A3
:1001F0000F9211248F939F93EF93FF9380910601A9
:1002000090910701E0910001EF5FEF70E093000132
:10021000F0E0EE0FFF1FE75FFE4F91838083FF91B9
:10022000EF919F918F910F900FBE0F901F90189597
:100230001F920F920FB60F9211248F939F93EF93FB
:10024000FF93E0910001EF5FEF70E0930001F0E0B9
:10025000EE0FFF1FE75FFE4F8EE590E091838083F6
:10026000FF91EF919F918F910F900FBE0F901F9074
:1002700018951F920F920FB60F9211248F939F9390
:10028000EF93FF93E0910001EF5FEF70E0930001C7
:10029000F0E0EE0FFF1FE75FFE4F81EE90E09183ED
:1002A0008083FF91EF919F918F910F900FBE0F90E0
:1002B0001F9018951F920F920FB60F9211240F9056
:1002C0000FBE0F901F901895E0910001EF5FEF7047
:1002D000E0930001F0E0EE0FFF1FE75FFE4F81EAC1
:1002E00090E091838083C3E5D0E0E0910501F0E0E8
:1002F000EE0FFF1FE75FFE4F0190F081E02D0995A3
:1003000080910501E82FF0E0EE0FFF1FE75FFE4F41
:10031000D183C08390910001891731F08F5F8F7076
:1003200080930501E82FE3CF8F5F8F7080930001EA
:0C03300080930501E82FDBCFF894FFCF8D
:02033C000F00B0
:00000001FF
