:100000000C9434000C94C7000C9446000C944600E9
:100010000C9446000C9446000C9446000C94460048
:100020000C9446000C9446000C9446000C94460038
:100030000C9446000C9446000C9446000C94460028
:100040000C9446000C9446000C9446000C94460018
:100050000C9446000C94A4000C9446000C944600AA
:100060000C9446000C94460011241FBECFEFD8E03C
:10007000DEBFCDBF21E0A0E0B1E001C01D92AE32F5
:10008000B207E1F70E94E8000C9420010C940000F4
:1000900088E284B981E58CBD089583B7817F83BFF1
:1000A00083B7816083BF889583B78E7F83BF0895B0
:1000B0001EBC0DB407FEFDCF9EB581E020912D0141
:1000C000211180E080932D01992349F080E01EBC2E
:1000D0000DB407FEFDCF2EB58F5F8913F8CF0895BD
:1000E000E5E0F1E08DE490E0918380839383828367
:1000F000958384839783868391878087938782877C
:100100009587848797878687918B808B938B828B4B
:10011000958B848B978B868B918F808F938F828F1B
:10012000958F848F978F868FE0910001EF5FEF703E
:10013000E0930001F0E0EE0FFF1FEB5FFE4F88E45D
:1001400090E09183808308951F920F920FB60F92D3
:1001500011248F939F93EF93FF93809102019091CD
:100160000301E0910001EF5FEF70E0930001F0E028
:10017000EE0FFF1FEB5FFE4F91838083FF91EF91A6
:100180009F918F910F900FBE0F901F9018951F9207
:100190000F920FB60F9211248F939F93EF93FF93BB
:1001A000E0910001EF5FEF70E0930001F0E0EE0FEF
:1001B000FF1FEB5FFE4F88E590E091838083FF9106
:1001C000EF919F918F910F900FBE0F901F901895F8
:1001D000E0910001EF5FEF70E0930001F0E0EE0FBF
:1001E000FF1FEB5FFE4F80E790E091838083CDE4BB
:1001F000D0E0E0910101F0E0EE0FFF1FEB5FFE4F5A
:100200000190F081E02D099580910101E82FF0E047
:10021000EE0FFF1FEB5FFE4FD183C0839091000173
:10022000891731F08F5F8F7080930101E82FE3CF42
:100230008F5F8F708093000180930101E82FDBCFE7
:04024000F894FFCF60
:00000001FF
