:100000000C9434000C9414010C9451000C94510085
:100010000C9451000C9451000C9451000C9451001C
:100020000C9451000C9451000C9451000C94350127
:100030000C9456010C9451000C9451000C945100F6
:100040000C9451000C9451000C9451000C945100EC
:100050000C9451000C94F1000C9451000C9451003C
:100060000C9451000C94510011241FBECFEFD8E026
:10007000DEBFCDBF11E0A0E0B1E0E4E3F3E002C0F9
:1000800005900D92A230B107D9F721E0A2E0B1E0CE
:1000900001C01D92AA34B207E1F70E9460010C94DE
:1000A00098010C94000083B7817F83BF83B7816080
:1000B00083BF889583B78E7F83BF08951EBC0DB420
:1000C00007FEFDCF9EB581E020914901211180E01E
:1000D00080934901992349F080E01EBC0DB407FECE
:1000E000FDCF2EB58F5F8913F8CF0895E0E8F0E0DB
:1000F00080818C75806A8083E1E8F0E08081807E79
:100100008960808385B3866085BB80E49CE9909399
:1001100089008093880080EE9EE290938B0080930C
:100120008A001092850010928400089588E284B9B4
:1001300081E58CBDE89A78940895E1E2F1E083E5E9
:1001400090E09183808393838283958384839783D4
:10015000868391878087938782879587848797870F
:100160008687918B808B938B828B958B848B978BDF
:10017000868B918F808F938F828F958F848F978FAF
:10018000868FE0910001EF5FEF70AE2FB0E0AA0F15
:10019000BB1FAF5DBE4F86E990E08D939C93EF5FF0
:1001A000EF70E0930001F0E0EE0FFF1FEF5DFE4FF8
:1001B00086E790E0918380830895809104018F5FAA
:1001C00069F488E380930401809102019091030116
:1001D0000196909303018093020108958093040196
:1001E00008951F920F920FB60F9211248F939F9331
:1001F000EF93FF938091060190910701E091000138
:10020000EF5FEF70E0930001F0E0EE0FFF1FEF5D96
:10021000FE4F91838083FF91EF919F918F910F907B
:100220000FBE0F901F9018951F920F920FB60F924E
:1002300011248F939F93EF93FF93E0910001EF5F61
:10024000EF70E0930001F0E0EE0FFF1FEF5DFE4F57
:100250008EE590E091838083FF91EF919F918F9144
:100260000F900FBE0F901F9018951F920F920FB610
:100270000F9211248F939F93EF93FF93E0910001CE
:10028000EF5FEF70E0930001F0E0EE0FFF1FEF5D16
:10029000FE4F8DED90E091838083FF91EF919F91D0
:1002A0008F910F900FBE0F901F9018951F920F9275
:1002B0000FB60F9211240F900FBE0F901F9018953C
:1002C000E0910001EF5FEF70E0930001F0E0EE0FCE
:1002D000FF1FEF5DFE4F8DE990E091838083C3E5C2
:1002E000D0E0E0910501F0E0EE0FFF1FEF5DFE4F63
:1002F0000190F081E02D099580910501E82FF0E053
:10030000EE0FFF1FEF5DFE4FD183C0839091000180
:10031000891731F08F5F8F7080930501E82FE3CF4D
:100320008F5F8F708093000180930501E82FDBCFF2
:04033000F894FFCF6F
:020334000F00B8
:00000001FF
