S00E000052432D4361722E737265633E
S11300000C9434000C9489000C9446000C94460023
S11300100C9446000C9446000C9446000C94460044
S11300200C9446000C9446000C9446000C94460034
S11300300C9446000C9446000C9446000C94460024
S11300400C9446000C9446000C9446000C94460014
S11300500C9446000C9453000C9446000C944600F7
S11300600C9446000C94460011241FBECFEFD8E038
S1130070DEBFCDBF21E0A0E0B1E001C01D92AE32F1
S1130080B207E1F70E94AA000C940A010C94000044
S113009083B7817F83BF83B7816083BF889583B72C
S11300A08E7F83BF08951F920F920FB60F92112473
S11300B02F933F934F935F936F937F938F939F936C
S11300C0AF93BF93EF93FF93E0910001F09101018F
S11300D00995E0912B01EF5FEF70E0932B01F0E0C5
S11300E0EE0FFF1FED5FFE4F88E490E09183808365
S11300F0FF91EF91BF91AF919F918F917F916F91FC
S11301005F914F913F912F910F900FBE0F901F90D1
S113011018951F920F920FB60F9211248F939F93ED
S1130120EF93FF93E0912B01EF5FEF70E0932B01CE
S1130130F0E0EE0FFF1FED5FFE4F88E490E0918347
S11301408083FF91EF919F918F910F900FBE0F903D
S11301501F901895C8E4D0E0D0930401C093030124
S1130160D0930601C0930501D0930801C093070101
S1130170D0930A01C0930901D0930C01C0930B01E1
S1130180D0930E01C0930D01D0931001C0930F01C1
S1130190D0931201C0931101D0931401C0931301A1
S11301A0D0931601C0931501D0931801C093170181
S11301B0D0931A01C0931901D0931C01C0931B0161
S11301C0D0931E01C0931D01D0932001C0931F0141
S11301D0D0932201C093210188E284B981E58CBDCA
S11301E0E0912C01F0E0EE0FFF1FED5FFE4F019058
S11301F0F081E02D0995E0912C01AE2FB0E0AA0F1B
S1130200BB1FAD5FBE4FCD93DC93EF5FEF70E09308
S10B02102C01E8CFF894FFCFA4
S9030000FC
