:100000000C9434000C9499000C9446000C94460017
:100010000C9446000C9446000C9446000C94460048
:100020000C9446000C9446000C9446000C94460038
:100030000C9446000C9446000C9446000C94460028
:100040000C9446000C9446000C9446000C94460018
:100050000C9446000C945B000C9446000C944600F3
:100060000C9446000C94460011241FBECFEFD8E03C
:10007000DEBFCDBF21E0A0E0B1E001C01D92AE32F5
:10008000B207E1F70E94C8000C94DC000C94000059
:1000900083B7817F83BF83B7816083BF889583B730
:1000A0008E7F83BF089581E090912D01911180E0B2
:1000B00080932D0108951F920F920FB60F92112475
:1000C0002F933F934F935F936F937F938F939F9360
:1000D000AF93BF93EF93FF93E0910001F091010183
:1000E0000995E0912B01AE2FB0E0AA0FBB1FAD5FC9
:1000F000BE4F88E490E08D939C93EF5FEF70E093A8
:100100002B01F0E0EE0FFF1FED5FFE4F9183808328
:10011000FF91EF91BF91AF919F918F917F916F91DF
:100120005F914F913F912F910F900FBE0F901F90B5
:1001300018951F920F920FB60F9211248F939F93D1
:10014000AF93BF93EF93FF93E0912B01AE2FB0E0FD
:10015000AA0FBB1FAD5FBE4F83E590E08D939C93CC
:10016000EF5FEF70E0932B01F0E0EE0FFF1FED5F0C
:10017000FE4F88E490E091838083FF91EF91BF91DF
:10018000AF919F918F910F900FBE0F901F90189578
:1001900088E284B981E58CBDE0912C01EF5FEF70BE
:1001A000E0932C01F0E0EE0FFF1FED5FFE4F01909A
:0C01B000F081E02D0995F0CFF894FFCF0E
:00000001FF
