:100000000C945F000C94D6040C94AF040C948700FD
:100010000C9487000C9487000C9487000C94870044
:100020000C9487000C9487000C9487000C94FD04BA
:100030000C9487000C9487000C9487000C94870024
:100040000C9465040C9487000C9433040C940D04F8
:100050000C9487000C9487000C9487000C94870004
:100060000C9487000C948700000000080002010037
:100070000003040700000000000000000E0F101134
:1000800000000000250028002B00000000002400D4
:1000900027002A00040404040404040402020202E7
:1000A000020203030303030301020408102040803B
:1000B000010204081020010204081020BE051124CA
:1000C0001FBECFEFD8E0DEBFCDBF11E0A0E0B1E0B2
:1000D000E8E2F0E102C005900D92AA33B107D9F72A
:1000E00022E0AAE3B1E001C01D92AF32B207E1F70E
:1000F00010E0CFE5D0E004C02197FE010E94070880
:10010000CE35D107C9F70E945B060C9412080C94F7
:10011000000090E0FC01E855FF4F2491FC01EC56F3
:10012000FF4F8491882399F090E0880F991FFC017C
:10013000E657FF4FA591B491FC01E058FF4F859120
:1001400094918FB7F894EC91E22BEC938FBF0895C4
:10015000FC01538D448D252F30E0842F90E0821BCD
:10016000930B541710F0CF96089501970895FC0152
:10017000918D828D981761F0828DDF01A80FB11DDE
:100180005D968C91928D9F5F9F73928F90E0089502
:100190008FEF9FEF0895FC01918D828D981731F0BC
:1001A000828DE80FF11D858D90E008958FEF9FEF10
:1001B0000895FC01918D228D892F90E0805C9F4FE6
:1001C000821B91098F7399270895FC01848DDF01AB
:1001D000A80FB11DA35ABF4F2C91848D90E00196BA
:1001E0008F739927848FA689B7892C93A089B189A9
:1001F0008C9180648C93938D848D981306C00288B3
:10020000F389E02D80818F7D80830895EF92FF92A6
:100210000F931F93CF93DF93EC0181E0888F9B8D29
:100220008C8D981305C0E889F989808185FD24C0EB
:10023000F62E0B8D10E00F5F1F4F0F731127E02E6E
:100240008C8DE8120CC00FB607FCFACFE889F9894B
:10025000808185FFF5CFCE010E94E500F1CF8B8D27
:10026000FE01E80FF11DE35AFF4FF0820B8FEA8980
:10027000FB898081806207C0EE89FF896083E889FD
:10028000F98980818064808381E090E0DF91CF9163
:100290001F910F91FF90EF900895CF93DF93EC01A2
:1002A000888D8823C9F0EA89FB89808185FD05C096
:1002B000A889B9898C9186FD0FC00FB607FCF5CFD0
:1002C000808185FFF2CFA889B9898C9185FFEDCF18
:1002D000CE010E94E500E7CFDF91CF91089585E43C
:1002E00091E00E94D90021E0892B09F420E0822FBF
:1002F000089580E090E0892B29F00E946F01811120
:100300000C94000008950895CF92DF92EF92FF922F
:100310000F931F93CF93DF936C017A018B01C0E0A1
:10032000D0E0CE15DF0589F0D8016D918D01D601A1
:10033000ED91FC910190F081E02DC6010995892B8A
:1003400011F47E0102C02196ECCFC701DF91CF915D
:100350001F910F91FF90EF90DF90CF90089590E064
:10036000FC01E859FF4F3491FC01E855FF4F2491FF
:10037000FC01EC56FF4FE491EE2309F43BC033231C
:1003800039F1333091F038F43130A9F0323001F5E1
:1003900084B58F7D12C0373091F03830A1F0343001
:1003A000B9F4809180008F7D03C0809180008F77A9
:1003B000809380000DC084B58F7784BD09C0809183
:1003C000B0008F7703C08091B0008F7D8093B00024
:1003D000F0E0EE0FFF1FE058FF4FA591B4918FB7EB
:1003E000F894EC91611103C020952E2301C02E2BAF
:1003F0002C938FBF08953FB7F8948091400190915E
:100400004101A0914201B091430126B5A89B05C0CE
:100410002F3F19F00196A11DB11D3FBFBA2FA92F83
:10042000982F8827820F911DA11DB11DBC01CD0100
:1004300042E0660F771F881F991F4A95D1F70895EC
:100440008F929F92AF92BF92CF92DF92EF92FF92E4
:100450000E94FB014B015C018AE0C82ED12CE12CEB
:10046000F12C0E94FB01DC01CB0188199909AA0932
:10047000BB09883E9340A105B10558F021E0C21A9E
:10048000D108E108F10888EE880E83E0981EA11CCF
:10049000B11CC114D104E104F10419F7FF90EF90ED
:1004A000DF90CF90BF90AF909F908F900895EF9284
:1004B000FF921F93CF93DF931F92CDB7DEB77C01DE
:1004C000162F60E0FC01868549830E94AF01F70189
:1004D000948585859CBD8DBD1EBD000049810DB4F0
:1004E00007FEFDCF8EB54EBD00000DB407FEFDCF5B
:1004F0001EB561E0F70186850E94AF01812F0F9044
:10050000DF91CF911F91FF90EF9008956F7740E0BA
:100510000C945702CF9362E182EE91E00E94860232
:10052000C82F482F62E982EE91E00E945702C5FD74
:100530002DC01092F9011092F8018091FA0190916A
:10054000FB01892B11F062E201C063E182EE91E0D0
:100550000E948602C82F60E182EE91E00E9486022E
:10056000482F6DE882EE91E00E945702E091FC0175
:10057000F091FD01309719F08C2F90E0099540E043
:100580006DE882EE91E0CF910C945702CF910895DF
:100590000895EF92FF921F93CF93DF931F92CDB7F1
:1005A000DEB77C01DC01ED91FC910084F185E02D4A
:1005B0000995892B99F06DE0C7010E948602482FAA
:1005C00060E0C70149830E948602182F49816DE8C7
:1005D000C7010E945702812F90E002C08FEF9FEF6A
:1005E0000F90DF91CF911F91FF90EF900895CF93DF
:1005F000DF93EC01E881F9810084F185E02D099514
:10060000892B59F08E899F8901969F8B8E8B60E094
:10061000CE010E94860290E002C08FEF9FEFDF9133
:10062000CF910895CF93DF93EC0163E10E9486029E
:10063000282F30E08E899F89A901481B590BCA01D8
:10064000DF91CF9108958F929F92AF92BF92CF92F8
:10065000DF92FF920F931F93CF93DF931F92CDB73B
:10066000DEB76C01B62E4A0162E279830E948602EF
:10067000F82E90E09C01280D391D79812F3F31051E
:1006800031F028F02FEF30E04901881A990A0B2D3C
:10069000172F5801A80CB91C0A151B0541F0F801C9
:1006A00041918F0160E8C6010E945702F5CF482DA5
:1006B0004F0D62EAC6010E945702C4010F90DF91FC
:1006C000CF911F910F91FF90DF90CF90BF90AF908F
:1006D0009F908F900895CF93DF931F92CDB7DEB791
:1006E0006983DC01ED91FC910280F381E02D41E012
:1006F00050E0BE016F5F7F4F09950F90DF91CF9162
:100700000895089580E090E00895BF92CF92DF921F
:10071000EF92FF920F931F93CF93DF93EC0141E190
:1007200050E068E271E085E491E00E948401C12C10
:10073000D12C08E810E098E5E92E92E0F92ECC16CD
:10074000DD060CF05EC082EE91E0C0FE53C00E9458
:10075000F7022B2D382FB9016F707727FB01EE0FB1
:10076000FF1FDF01A60FB71FAD5DBD4F4C914C3091
:1007700008F043C037FF02C0215F3F4FA4E035952A
:100780002795AA95E1F7C90184529A4FE60FF71F02
:10079000ED5DFD4F2181B801621B710927FD739545
:1007A0009B01220F331F220F331F821793077CF008
:1007B0002281B701621B710927FD73959B01220FEE
:1007C000331F220F331F821793070CF49C01225012
:1007D0003109220F331F8FB7F89450E0FA01EE0F62
:1007E000FF1F4E0F5F1FFA01E250FE4F328321833D
:1007F0008FBF03C00E94F702B82E7FEFC71AD70A37
:100800009ECFDF91CF911F910F91FF90EF90DF90DE
:10081000CF90BF9008950E940D081F920F920FB6BF
:100820000F9211242F933F934F935F936F937F9376
:100830008F939F93AF93BF93EF93FF9385E491E0E2
:100840000E94E500FF91EF91BF91AF919F918F9131
:100850007F916F915F914F913F912F910F900FBEBC
:100860000F901F9018951F920F920FB60F921124A0
:100870002F938F939F93EF93FF93E0915501F09106
:1008800056018081E0915B01F0915C0182FD12C014
:10089000908180915E018F5F8F7320915F0182173D
:1008A00051F0E0915E01F0E0EB5BFE4F958F80939D
:1008B0005E0101C08081FF91EF919F918F912F91F7
:1008C0000F900FBE0F901F9018951F920F920FB6AA
:1008D0000F9211242F933F938F939F93AF93BF93C6
:1008E00080913C0190913D01A0913E01B0913F016A
:1008F00030913B0123E0230F2D3720F40196A11DF9
:10090000B11D05C026E8230F0296A11DB11D20933D
:100910003B0180933C0190933D01A0933E01B09335
:100920003F018091400190914101A0914201B0911D
:1009300043010196A11DB11D809340019093410197
:10094000A0934201B0934301BF91AF919F918F91CA
:100950003F912F910F900FBE0F901F9018951F92EF
:100960000F920FB60F9211242F933F934F935F93E3
:100970006F937F938F939F93AF93BF93EF93FF9367
:10098000E0910201F09103010995FF91EF91BF9170
:10099000AF919F918F917F916F915F914F913F9117
:1009A0002F910F900FBE0F901F9018951F920F92CE
:1009B0000FB60F9211242F933F934F935F936F9332
:1009C0007F938F939F93AF93BF93EF93FF93E091A8
:1009D0000001F09101010995FF91EF91BF91AF9155
:1009E0009F918F917F916F915F914F913F912F9147
:1009F0000F900FBE0F901F9018951F920F920FB679
:100A00000F9211242F933F934F935F936F937F9394
:100A10008F939F93AF93BF93EF93FF9380913A018E
:100A200087FF05C010928500109284001BC02091A2
:100A30003A01022E000C330B8091220290E028171D
:100A4000390784F480913A01082E000C990BFC01BF
:100A5000EE0FFF1F8E0F9F1FFC01E250FE4F8081A3
:100A600086FD15C080913A018F5F80933A012091F5
:100A70003A01022E000C330B8091220290E02817DD
:100A80003907C4F480913A018C3064F113C080912D
:100A90003A01082E000C990BFC01EE0FFF1F8E0F80
:100AA0009F1FFC01E250FE4F808160E08F730E9427
:100AB000AF01D8CF80918400909185000496803456
:100AC0009C4918F480E49CE905C0809184009091D1
:100AD0008500049690938900809388008FEF80931F
:100AE0003A013BC0209184003091850080913A0109
:100AF000082E000C990BFC01EE0FFF1F8E0F9F1F9D
:100B0000FC01E250FE4F81819281820F931F9093EE
:100B100089008093880080913A01082E000C990B7F
:100B2000FC01EE0FFF1F8E0F9F1FFC01E250FE4FD6
:100B3000808186FF12C080913A01082E000C990B2B
:100B4000FC01EE0FFF1F8E0F9F1FFC01E250FE4FB6
:100B5000808161E08F730E94AF01FF91EF91BF919F
:100B6000AF919F918F917F916F915F914F913F9145
:100B70002F910F900FBE0F901F9018951092480163
:100B80001092470188EE93E0A0E0B0E08093490125
:100B900090934A01A0934B01B0934C0188E091E0FF
:100BA000909346018093450185EC90E0909352012B
:100BB0008093510184EC90E0909354018093530111
:100BC00080EC90E0909356018093550181EC90E089
:100BD000909358018093570182EC90E090935A01D2
:100BE0008093590186EC90E090935C0180935B01C7
:100BF00010925E0110925F011092600110926101EB
:100C00001092E5011092E4018AE191E09093E301F2
:100C10008093E20180E58093EE0181E08093EF0113
:100C20008AE090E09093F1018093F00189E090E0F8
:100C30009093F3018093F20182E090E09093F501AC
:100C40008093F4011092F7011092F6011092F901CD
:100C50001092F8011092FB011092FA011092FD011E
:100C60001092FC011092E6011092E7011092E80147
:100C70001092E90180912202A3E2B2E09FEF48EBDB
:100C80005BE08C3078F48C93282F30E0F901EE0F84
:100C9000FF1F2E0F3F1FF901E250FE4F5283418389
:100CA0008F5F01C09C93139622E0AF32B20749F7E1
:100CB000809322020895789484B5826084BD84B5BF
:100CC000816084BD85B5826085BD85B5816085BD47
:100CD00080916E00816080936E00109281008091FF
:100CE0008100826080938100809181008160809387
:100CF0008100809180008160809380008091B100AC
:100D000084608093B1008091B00081608093B000D6
:100D100080917A00846080937A0080917A0082606A
:100D200080937A0080917A00816080937A0080912C
:100D30007A00806880937A001092C1008DE00E9452
:100D4000890060E08DE00E94AF010CE710E0C3E293
:100D5000D2E0E12CF12C8CE0D82E92E0C92EF801E3
:100D6000B1908F0188818C3008F051C08B2D0E948A
:100D700089008881E82FF0E09F01220F331FE20FE6
:100D8000F31FE250FE4F9B2D9F732081207CB22EDB
:100D9000B92AB082F701ED5DFD4F118212826D2DEF
:100DA0000E94FB07FCE08F9FB001112440E050E05F
:100DB0009A01260F371FF901EE0FFF1F2E0F3F1F5D
:100DC000F901E250FE4F908196FD15C04F5F5F4FD5
:100DD0004C30510569F781110EC010928000C0920D
:100DE00081001092850010928400B19A80916F006A
:100DF000826080936F00E881F0E0CF01880F991F37
:100E0000E80FF91FE250FE4F8081806480832396B3
:100E100083E0E80EF11C9CE0E916F10409F09FCF95
:100E20008091F0010E9489008091F2010E94890066
:100E300060E08091F2010E94AF010E94200261E017
:100E40008091F2010E94AF010E94200261E0809136
:100E5000F0010E94AF01CFB7F89480914401811155
:100E600024C0EEE9F0E08491E2EBF0E09491E82F09
:100E7000F0E0EE0FFF1FE657FF4FA591B491EC9104
:100E8000E92321F461E08AE00E94AF018AE00E9438
:100E900089008CB580618CBD8CB580648CBD8DE083
:100EA0000E9489008BE00E948900809144018F5F3D
:100EB00080934401CFBF62E482EE91E00E948602FB
:100EC000823109F08AC040E861E882EE91E00E9438
:100ED000570280EC9AEC9093F7018093F60144EE70
:100EE00066E882EE91E00E94570240EC67E882EEED
:100EF00091E00E94570240E068E882EE91E00E9493
:100F0000570240E06EE882EE91E00E94570240E016
:100F10006FE882EE91E00E9457026CE082EE91E071
:100F20000E948602482F43606CE882EE91E00E94A6
:100F3000570244E066EA82EE91E00E9457024FE8D1
:100F400069E882EE91E00E94570241E861E882EE92
:100F500091E00E94570285E893E09093FD01809311
:100F6000FC0140E060EC82EE91E00E94570280912B
:100F7000F4019091F5018230910519F00397A1F4E5
:100F800031C080E0E82FF0E0EE0FFF1FE050FF4F90
:100F90002AE832E031832083813031F18091690089
:100FA000836080936900E89A1092FB011092FA0125
:100FB0006DE182EE91E00E948602482F4E7F6DE93E
:100FC00082EE91E00E94570245E861E882EE91E0EE
:100FD0000E9457020E947901FDCF61E08DE00E94DE
:100FE000AF01FFCF81E0CECF809169008C6080930C
:100FF0006900E99AD9CF991B79E004C0991F961727
:1010000008F0961B881F7A95C9F780950895EE0F12
:10101000FF1F0590F491E02D099481E090E0F89491
:081020000C941208F894FFCFB4
:10102800830183010000000006018401A8004D012E
:10103800D900B700CB00000000006B032303820334
:10104800C8021203F702C9025265636569766564CE
:0A105800207061636B6574202700AF
:107E000085E08093810082E08093C00088E18093C8
:107E1000C10086E08093C20080E18093C40084B7F3
:107E200014BE81FFD0D089E2C8D0259A86E020E335
:107E30003CEF91E0309385002093840096BBB09B8B
:107E4000FECF1D9AA8958150A9F7DD24D394A5E013
:107E5000EA2EF1E1FF2EA4D0813421F481E0BED0DE
:107E600083E024C0823411F484E103C0853419F422
:107E700085E0B4D08AC08535A1F492D0082F10E0F7
:107E800010930102009300028BD090E0982F882776
:107E9000802B912B880F991F9093010280930002F1
:107EA00073C0863529F484E099D080E071D06DC02C
:107EB000843609F043C07CD0E0910002F0910102C9
:107EC00083E080935700E895C0E0D1E069D08993C2
:107ED000809102028150809302028823B9F778D002
:107EE00007B600FCFDCF4091000250910102A0E0D6
:107EF000B1E02C9130E011968C91119790E0982F81
:107F00008827822B932B1296FA010C01D0925700EE
:107F1000E89511244E5F5F4FF1E0A038BF0749F7A5
:107F2000E0910002F0910102E0925700E89507B657
:107F300000FCFDCFF0925700E89527C08437B9F4D4
:107F400037D046D0E0910002F09101023196F093D3
:107F50000102E09300023197E4918E2F19D08091B5
:107F60000202815080930202882361F70EC0853798
:107F700039F42ED08EE10CD085E90AD08FE096CF6F
:107F8000813511F488E019D023D080E101D063CF8E
:107F9000982F8091C00085FFFCCF9093C600089574
:107FA000A8958091C00087FFFCCF8091C6000895FE
:107FB000F7DFF6DF80930202F3CFE0E6F0E098E12E
:107FC00090838083089580E0F8DFEE27FF270994EF
:107FD000E7DF803209F0F7DF84E1DACF1F93182F53
:0C7FE000DFDF1150E9F7F4DF1F91089576
:0400000300007E007B
:00000001FF
