:1000000009C021C020C01FC01EC01DC01CC01BC015
:100010001AC019C011241FBECFE9CDBF10E0A0E661
:10002000B0E0EAEFF0E002C005900D92A236B10711
:10003000D9F720E0A2E6B0E001C01D92A337B207D5
:10004000E1F733D058C0DCCF85B7877E85BF85B751
:10005000806285BF889585B78F7D85BF0895F894A8
:1000600088E087BB83B7856083BF89B7826089BF1B
:1000700078940895E0916000EF5FE770E09360008E
:10008000F0E0EE0FFF1FED59FF4F9183808308953D
:10009000E3E6F0E084E290E08193919320E0E3379F
:1000A000F207D1F78FE290E0E5CF88E490E0E2DF5D
:1000B000C4E2D0E0E0916200F0E0EE0FFF1FED59E6
:1000C000FF4F0190F081E02D099590916200E92F9A
:1000D000F0E0EE0FFF1FED59FF4FD183C083209159
:1000E000600081E0890F8770921302C080936000E6
:0A00F00080936200DFCFF894FFCF89
:0200FA000700FD
:00000001FF
